{
  "contractName": "Staking",
  "abi": [
    {
      "inputs": [],
      "stateMutability": "nonpayable",
      "type": "constructor"
    },
    {
      "anonymous": false,
      "inputs": [
        {
          "indexed": true,
          "internalType": "bytes32",
          "name": "role",
          "type": "bytes32"
        },
        {
          "indexed": true,
          "internalType": "bytes32",
          "name": "previousAdminRole",
          "type": "bytes32"
        },
        {
          "indexed": true,
          "internalType": "bytes32",
          "name": "newAdminRole",
          "type": "bytes32"
        }
      ],
      "name": "RoleAdminChanged",
      "type": "event"
    },
    {
      "anonymous": false,
      "inputs": [
        {
          "indexed": true,
          "internalType": "bytes32",
          "name": "role",
          "type": "bytes32"
        },
        {
          "indexed": true,
          "internalType": "address",
          "name": "account",
          "type": "address"
        },
        {
          "indexed": true,
          "internalType": "address",
          "name": "sender",
          "type": "address"
        }
      ],
      "name": "RoleGranted",
      "type": "event"
    },
    {
      "anonymous": false,
      "inputs": [
        {
          "indexed": true,
          "internalType": "bytes32",
          "name": "role",
          "type": "bytes32"
        },
        {
          "indexed": true,
          "internalType": "address",
          "name": "account",
          "type": "address"
        },
        {
          "indexed": true,
          "internalType": "address",
          "name": "sender",
          "type": "address"
        }
      ],
      "name": "RoleRevoked",
      "type": "event"
    },
    {
      "anonymous": false,
      "inputs": [
        {
          "indexed": true,
          "internalType": "address",
          "name": "account",
          "type": "address"
        },
        {
          "indexed": true,
          "internalType": "uint256",
          "name": "sessionId",
          "type": "uint256"
        },
        {
          "indexed": false,
          "internalType": "uint256",
          "name": "amount",
          "type": "uint256"
        },
        {
          "indexed": false,
          "internalType": "uint256",
          "name": "start",
          "type": "uint256"
        },
        {
          "indexed": false,
          "internalType": "uint256",
          "name": "end",
          "type": "uint256"
        }
      ],
      "name": "stake",
      "type": "event"
    },
    {
      "inputs": [],
      "name": "DEFAULT_ADMIN_ROLE",
      "outputs": [
        {
          "internalType": "bytes32",
          "name": "",
          "type": "bytes32"
        }
      ],
      "stateMutability": "view",
      "type": "function"
    },
    {
      "inputs": [],
      "name": "bigPayoutPool",
      "outputs": [
        {
          "internalType": "uint256",
          "name": "",
          "type": "uint256"
        }
      ],
      "stateMutability": "view",
      "type": "function"
    },
    {
      "inputs": [
        {
          "internalType": "bytes32",
          "name": "role",
          "type": "bytes32"
        }
      ],
      "name": "getRoleAdmin",
      "outputs": [
        {
          "internalType": "bytes32",
          "name": "",
          "type": "bytes32"
        }
      ],
      "stateMutability": "view",
      "type": "function"
    },
    {
      "inputs": [
        {
          "internalType": "bytes32",
          "name": "role",
          "type": "bytes32"
        },
        {
          "internalType": "uint256",
          "name": "index",
          "type": "uint256"
        }
      ],
      "name": "getRoleMember",
      "outputs": [
        {
          "internalType": "address",
          "name": "",
          "type": "address"
        }
      ],
      "stateMutability": "view",
      "type": "function"
    },
    {
      "inputs": [
        {
          "internalType": "bytes32",
          "name": "role",
          "type": "bytes32"
        }
      ],
      "name": "getRoleMemberCount",
      "outputs": [
        {
          "internalType": "uint256",
          "name": "",
          "type": "uint256"
        }
      ],
      "stateMutability": "view",
      "type": "function"
    },
    {
      "inputs": [
        {
          "internalType": "bytes32",
          "name": "role",
          "type": "bytes32"
        },
        {
          "internalType": "address",
          "name": "account",
          "type": "address"
        }
      ],
      "name": "grantRole",
      "outputs": [],
      "stateMutability": "nonpayable",
      "type": "function"
    },
    {
      "inputs": [
        {
          "internalType": "bytes32",
          "name": "role",
          "type": "bytes32"
        },
        {
          "internalType": "address",
          "name": "account",
          "type": "address"
        }
      ],
      "name": "hasRole",
      "outputs": [
        {
          "internalType": "bool",
          "name": "",
          "type": "bool"
        }
      ],
      "stateMutability": "view",
      "type": "function"
    },
    {
      "inputs": [],
      "name": "init_",
      "outputs": [
        {
          "internalType": "bool",
          "name": "",
          "type": "bool"
        }
      ],
      "stateMutability": "view",
      "type": "function"
    },
    {
      "inputs": [],
      "name": "mainToken",
      "outputs": [
        {
          "internalType": "address",
          "name": "",
          "type": "address"
        }
      ],
      "stateMutability": "view",
      "type": "function"
    },
    {
      "inputs": [
        {
          "internalType": "bytes32",
          "name": "role",
          "type": "bytes32"
        },
        {
          "internalType": "address",
          "name": "account",
          "type": "address"
        }
      ],
      "name": "renounceRole",
      "outputs": [],
      "stateMutability": "nonpayable",
      "type": "function"
    },
    {
      "inputs": [
        {
          "internalType": "bytes32",
          "name": "role",
          "type": "bytes32"
        },
        {
          "internalType": "address",
          "name": "account",
          "type": "address"
        }
      ],
      "name": "revokeRole",
      "outputs": [],
      "stateMutability": "nonpayable",
      "type": "function"
    },
    {
      "inputs": [],
      "name": "totalStakers",
      "outputs": [
        {
          "internalType": "uint256",
          "name": "",
          "type": "uint256"
        }
      ],
      "stateMutability": "view",
      "type": "function"
    },
    {
      "inputs": [],
      "name": "totalStakes",
      "outputs": [
        {
          "internalType": "uint256",
          "name": "",
          "type": "uint256"
        }
      ],
      "stateMutability": "view",
      "type": "function"
    },
    {
      "inputs": [
        {
          "internalType": "address",
          "name": "_mainToken",
          "type": "address"
        }
      ],
      "name": "init",
      "outputs": [],
      "stateMutability": "nonpayable",
      "type": "function"
    },
    {
      "inputs": [
        {
          "internalType": "uint256",
          "name": "amount",
          "type": "uint256"
        },
        {
          "internalType": "uint256",
          "name": "stakingDays",
          "type": "uint256"
        }
      ],
      "name": "createStake",
      "outputs": [
        {
          "internalType": "uint256",
          "name": "",
          "type": "uint256"
        }
      ],
      "stateMutability": "nonpayable",
      "type": "function"
    },
    {
      "inputs": [
        {
          "internalType": "uint256",
          "name": "sessionID",
          "type": "uint256"
        }
      ],
      "name": "returnSessionInfo",
      "outputs": [
        {
          "internalType": "address",
          "name": "account",
          "type": "address"
        },
        {
          "internalType": "uint256",
          "name": "amount",
          "type": "uint256"
        },
        {
          "internalType": "uint256",
          "name": "session",
          "type": "uint256"
        },
        {
          "internalType": "uint256",
          "name": "start",
          "type": "uint256"
        },
        {
          "internalType": "uint256",
          "name": "end",
          "type": "uint256"
        },
        {
          "internalType": "uint256",
          "name": "stakeDays",
          "type": "uint256"
        },
        {
          "internalType": "uint256",
          "name": "interest",
          "type": "uint256"
        }
      ],
      "stateMutability": "view",
      "type": "function"
    },
    {
      "inputs": [
        {
          "internalType": "address",
          "name": "_address",
          "type": "address"
        }
      ],
      "name": "isStakeholder",
      "outputs": [
        {
          "internalType": "bool",
          "name": "",
          "type": "bool"
        },
        {
          "internalType": "uint256",
          "name": "",
          "type": "uint256"
        }
      ],
      "stateMutability": "view",
      "type": "function"
    }
  ],
  "bytecode": "0x6080604052600060025560006003556c08884618160292a0d4a00000006004556c0327cb2734119d3b7a900000006005556b033b2e3c9fd0803ce80000006006556c0327cb2734119d3b7a900000006007556bf2568bc2d21591d7f80000006008556bf2568bc2d21591d7f80000006009556b50c783eb9b5c85f2a8000000600a556216e360600b55600e600c5561016d600d5534801561009f57600080fd5b5060006014806101000a81548160ff021916908315150217905550611b3f806100c96000396000f3fe608060405234801561001057600080fd5b5060043610610128576000357c01000000000000000000000000000000000000000000000000000000009004806391d14854116100bf578063c8dae72a1161008e578063c8dae72a14610411578063ca15c873146104a9578063d547741f146104eb578063d7fa023d14610539578063ef037b901461058557610128565b806391d148541461034d578063982e52fb146103b3578063a217fddf146103d5578063bf9befb1146103f357610128565b80633fc15f15116100fb5780633fc15f151461024f578063749c57861461029957806386989038146102b75780639010d07c146102d557610128565b806319ab453c1461012d578063248a9ca3146101715780632f2ff15d146101b357806336568abe14610201575b600080fd5b61016f6004803603602081101561014357600080fd5b81019080803573ffffffffffffffffffffffffffffffffffffffff1690602001909291905050506105e8565b005b61019d6004803603602081101561018757600080fd5b8101908080359060200190929190505050610646565b6040518082815260200191505060405180910390f35b6101ff600480360360408110156101c957600080fd5b8101908080359060200190929190803573ffffffffffffffffffffffffffffffffffffffff169060200190929190505050610665565b005b61024d6004803603604081101561021757600080fd5b8101908080359060200190929190803573ffffffffffffffffffffffffffffffffffffffff1690602001909291905050506106ee565b005b610257610787565b604051808273ffffffffffffffffffffffffffffffffffffffff1673ffffffffffffffffffffffffffffffffffffffff16815260200191505060405180910390f35b6102a16107ad565b6040518082815260200191505060405180910390f35b6102bf6107b3565b6040518082815260200191505060405180910390f35b61030b600480360360408110156102eb57600080fd5b8101908080359060200190929190803590602001909291905050506107b9565b604051808273ffffffffffffffffffffffffffffffffffffffff1673ffffffffffffffffffffffffffffffffffffffff16815260200191505060405180910390f35b6103996004803603604081101561036357600080fd5b8101908080359060200190929190803573ffffffffffffffffffffffffffffffffffffffff1690602001909291905050506107ea565b604051808215151515815260200191505060405180910390f35b6103bb61081b565b604051808215151515815260200191505060405180910390f35b6103dd61082d565b6040518082815260200191505060405180910390f35b6103fb610835565b6040518082815260200191505060405180910390f35b61043d6004803603602081101561042757600080fd5b810190808035906020019092919050505061083b565b604051808873ffffffffffffffffffffffffffffffffffffffff1673ffffffffffffffffffffffffffffffffffffffff16815260200187815260200186815260200185815260200184815260200183815260200182815260200197505050505050505060405180910390f35b6104d5600480360360208110156104bf57600080fd5b8101908080359060200190929190505050610920565b6040518082815260200191505060405180910390f35b6105376004803603604081101561050157600080fd5b8101908080359060200190929190803573ffffffffffffffffffffffffffffffffffffffff169060200190929190505050610946565b005b61056f6004803603604081101561054f57600080fd5b8101908080359060200190929190803590602001909291905050506109cf565b6040518082815260200191505060405180910390f35b6105c76004803603602081101561059b57600080fd5b81019080803573ffffffffffffffffffffffffffffffffffffffff16906020019092919050505061117f565b60405180831515151581526020018281526020019250505060405180910390f35b80601460006101000a81548173ffffffffffffffffffffffffffffffffffffffff021916908373ffffffffffffffffffffffffffffffffffffffff16021790555060016014806101000a81548160ff02191690831515021790555050565b6000806000838152602001908152602001600020600201549050919050565b61068b60008084815260200190815260200160002060020154610686611229565b6107ea565b6106e0576040517f08c379a000000000000000000000000000000000000000000000000000000000815260040180806020018281038252602f815260200180611a5b602f913960400191505060405180910390fd5b6106ea8282611231565b5050565b6106f6611229565b73ffffffffffffffffffffffffffffffffffffffff168173ffffffffffffffffffffffffffffffffffffffff1614610779576040517f08c379a000000000000000000000000000000000000000000000000000000000815260040180806020018281038252602f815260200180611adb602f913960400191505060405180910390fd5b61078382826112c4565b5050565b601460009054906101000a900473ffffffffffffffffffffffffffffffffffffffff1681565b600b5481565b60025481565b60006107e28260008086815260200190815260200160002060000161135790919063ffffffff16565b905092915050565b60006108138260008086815260200190815260200160002060000161137290919063ffffffff16565b905092915050565b6014809054906101000a900460ff1681565b600060010281565b60035481565b60008060008060008060006012600089815260200190815260200160002060000160009054906101000a900473ffffffffffffffffffffffffffffffffffffffff16601260008a815260200190815260200160002060010154601260008b815260200190815260200160002060060154601260008c815260200190815260200160002060020154601260008d815260200190815260200160002060030154601260008e815260200190815260200160002060050154601260008f8152602001908152602001600020600401549650965096509650965096509650919395979092949650565b600061093f6000808481526020019081526020016000206000016113a2565b9050919050565b61096c60008084815260200190815260200160002060020154610967611229565b6107ea565b6109c1576040517f08c379a0000000000000000000000000000000000000000000000000000000008152600401808060200182810382526030815260200180611a8a6030913960400191505060405180910390fd5b6109cb82826112c4565b5050565b600082601460009054906101000a900473ffffffffffffffffffffffffffffffffffffffff1673ffffffffffffffffffffffffffffffffffffffff166370a08231336040518263ffffffff167c0100000000000000000000000000000000000000000000000000000000028152600401808273ffffffffffffffffffffffffffffffffffffffff1673ffffffffffffffffffffffffffffffffffffffff16815260200191505060206040518083038186803b158015610a8d57600080fd5b505afa158015610aa1573d6000803e3d6000fd5b505050506040513d6020811015610ab757600080fd5b81019080805190602001909291905050501015610b3c576040517f08c379a00000000000000000000000000000000000000000000000000000000081526004018080602001828103825260208152602001807f596f752063616e206f6e6c79207374616b65207768617420796f75206f776e2e81525060200191505060405180910390fd5b60008211610bb2576040517f08c379a000000000000000000000000000000000000000000000000000000000815260040180806020018281038252600f8152602001807f7374616b696e6744617973203c2031000000000000000000000000000000000081525060200191505060405180910390fd5b610bc7836003546113b790919063ffffffff16565b600381905550601460009054906101000a900473ffffffffffffffffffffffffffffffffffffffff1673ffffffffffffffffffffffffffffffffffffffff16639dc29fac33856040518363ffffffff167c0100000000000000000000000000000000000000000000000000000000028152600401808373ffffffffffffffffffffffffffffffffffffffff1673ffffffffffffffffffffffffffffffffffffffff16815260200182815260200192505050600060405180830381600087803b158015610c9257600080fd5b505af1158015610ca6573d6000803e3d6000fd5b50505050610cd2610cc3620151808461143f90919063ffffffff16565b426113b790919063ffffffff16565b600181905550600080600080600e549050600080600f8810158015610cf85750601e8811155b15610d48576101f4955060219450610d1a600f896114c590919063ffffffff16565b9050610d4186610d33878461143f90919063ffffffff16565b6113b790919063ffffffff16565b9350610ec2565b601e88118015610d595750605a8811155b15610da9576104b0955060289450610d7b601e896114c590919063ffffffff16565b9050610da286610d94878461143f90919063ffffffff16565b6113b790919063ffffffff16565b9350610ec1565b605a88118015610dba575060b48811155b15610e0a576110689550602f9450610ddc605a896114c590919063ffffffff16565b9050610e0386610df5878461143f90919063ffffffff16565b6113b790919063ffffffff16565b9350610ec0565b60b488118015610e1c57506101688811155b15610e6c57612580955060359450610e3e60b4896114c590919063ffffffff16565b9050610e6586610e57878461143f90919063ffffffff16565b6113b790919063ffffffff16565b9350610ebf565b610168881115610ebe576155f09550603d9450610e94610168896114c590919063ffffffff16565b9050610ebb86610ead878461143f90919063ffffffff16565b6113b790919063ffffffff16565b93505b5b5b5b5b610ed86001600e546113b790919063ffffffff16565b600e81905550610f05612710610ef7868c61143f90919063ffffffff16565b61150f90919063ffffffff16565b9150610f0f6119e5565b6040518060e001604052803373ffffffffffffffffffffffffffffffffffffffff1681526020018b815260200142815260200160015481526020018481526020018a815260200185815250905080601160003373ffffffffffffffffffffffffffffffffffffffff1673ffffffffffffffffffffffffffffffffffffffff16815260200190815260200160002060008201518160000160006101000a81548173ffffffffffffffffffffffffffffffffffffffff021916908373ffffffffffffffffffffffffffffffffffffffff1602179055506020820151816001015560408201518160020155606082015181600301556080820151816004015560a0820151816005015560c08201518160060155905050806012600086815260200190815260200160002060008201518160000160006101000a81548173ffffffffffffffffffffffffffffffffffffffff021916908373ffffffffffffffffffffffffffffffffffffffff1602179055506020820151816001015560408201518160020155606082015181600301556080820151816004015560a0820151816005015560c082015181600601559050506000600f60003373ffffffffffffffffffffffffffffffffffffffff1673ffffffffffffffffffffffffffffffffffffffff16815260200190815260200160002054141561110e5761110d33611559565b5b833373ffffffffffffffffffffffffffffffffffffffff167f2a0f7700826dfccae07a8181868bcdde098fd721d4928a6538f294ad7240e4898c4260015460405180848152602001838152602001828152602001935050505060405180910390a38397505050505050505092915050565b60008060008090505b60138054905081101561121857601381815481106111a257fe5b9060005260206000200160009054906101000a900473ffffffffffffffffffffffffffffffffffffffff1673ffffffffffffffffffffffffffffffffffffffff168473ffffffffffffffffffffffffffffffffffffffff16141561120d576001819250925050611224565b600181019050611188565b50600080809050915091505b915091565b600033905090565b611258816000808581526020019081526020016000206000016115f090919063ffffffff16565b156112c057611265611229565b73ffffffffffffffffffffffffffffffffffffffff168173ffffffffffffffffffffffffffffffffffffffff16837f2f8788117e7eff1d82e926ec794901d17c78024a50270940304540a733656f0d60405160405180910390a45b5050565b6112eb8160008085815260200190815260200160002060000161162090919063ffffffff16565b15611353576112f8611229565b73ffffffffffffffffffffffffffffffffffffffff168173ffffffffffffffffffffffffffffffffffffffff16837ff6391f5c32d9c69d2a47ea670b442974b53935d1edc7fd64eb21e047a839171b60405160405180910390a45b5050565b60006113668360000183611650565b60019004905092915050565b600061139a836000018373ffffffffffffffffffffffffffffffffffffffff166001026116d3565b905092915050565b60006113b0826000016116f6565b9050919050565b600080828401905083811015611435576040517f08c379a000000000000000000000000000000000000000000000000000000000815260040180806020018281038252601b8152602001807f536166654d6174683a206164646974696f6e206f766572666c6f77000000000081525060200191505060405180910390fd5b8091505092915050565b60008083141561145257600090506114bf565b600082840290508284828161146357fe5b04146114ba576040517f08c379a0000000000000000000000000000000000000000000000000000000008152600401808060200182810382526021815260200180611aba6021913960400191505060405180910390fd5b809150505b92915050565b600061150783836040518060400160405280601e81526020017f536166654d6174683a207375627472616374696f6e206f766572666c6f770000815250611707565b905092915050565b600061155183836040518060400160405280601a81526020017f536166654d6174683a206469766973696f6e206279207a65726f0000000000008152506117c7565b905092915050565b60006115648261117f565b509050806115ec576013829080600181540180825580915050600190039060005260206000200160009091909190916101000a81548173ffffffffffffffffffffffffffffffffffffffff021916908373ffffffffffffffffffffffffffffffffffffffff1602179055506115e560016002546113b790919063ffffffff16565b6002819055505b5050565b6000611618836000018373ffffffffffffffffffffffffffffffffffffffff1660010261188d565b905092915050565b6000611648836000018373ffffffffffffffffffffffffffffffffffffffff166001026118fd565b905092915050565b6000818360000180549050116116b1576040517f08c379a0000000000000000000000000000000000000000000000000000000008152600401808060200182810382526022815260200180611a396022913960400191505060405180910390fd5b8260000182815481106116c057fe5b9060005260206000200154905092915050565b600080836001016000848152602001908152602001600020541415905092915050565b600081600001805490509050919050565b60008383111582906117b4576040517f08c379a00000000000000000000000000000000000000000000000000000000081526004018080602001828103825283818151815260200191508051906020019080838360005b8381101561177957808201518184015260208101905061175e565b50505050905090810190601f1680156117a65780820380516001836020036101000a031916815260200191505b509250505060405180910390fd5b5060008385039050809150509392505050565b60008083118290611873576040517f08c379a00000000000000000000000000000000000000000000000000000000081526004018080602001828103825283818151815260200191508051906020019080838360005b8381101561183857808201518184015260208101905061181d565b50505050905090810190601f1680156118655780820380516001836020036101000a031916815260200191505b509250505060405180910390fd5b50600083858161187f57fe5b049050809150509392505050565b600061189983836116d3565b6118f25782600001829080600181540180825580915050600190039060005260206000200160009091909190915055826000018054905083600101600084815260200190815260200160002081905550600190506118f7565b600090505b92915050565b600080836001016000848152602001908152602001600020549050600081146119d9576000600182039050600060018660000180549050039050600086600001828154811061194857fe5b906000526020600020015490508087600001848154811061196557fe5b906000526020600020018190555060018301876001016000838152602001908152602001600020819055508660000180548061199d57fe5b600190038181906000526020600020016000905590558660010160008781526020019081526020016000206000905560019450505050506119df565b60009150505b92915050565b6040518060e00160405280600073ffffffffffffffffffffffffffffffffffffffff168152602001600081526020016000815260200160008152602001600081526020016000815260200160008152509056fe456e756d657261626c655365743a20696e646578206f7574206f6620626f756e6473416363657373436f6e74726f6c3a2073656e646572206d75737420626520616e2061646d696e20746f206772616e74416363657373436f6e74726f6c3a2073656e646572206d75737420626520616e2061646d696e20746f207265766f6b65536166654d6174683a206d756c7469706c69636174696f6e206f766572666c6f77416363657373436f6e74726f6c3a2063616e206f6e6c792072656e6f756e636520726f6c657320666f722073656c66a2646970667358221220a3fe6ee1918c5d67e755840d056f53f49700b491bb47cf65471ea1f8d433825b64736f6c63430006020033",
  "source": "\r\n// SPDX-License-Identifier: MIT\r\n\r\npragma solidity >=0.4.25 <0.7.0;\r\n\r\nimport \"@openzeppelin/contracts/token/ERC20/IERC20.sol\";\r\nimport \"@openzeppelin/contracts/token/ERC20/ERC20.sol\";\r\nimport \"@openzeppelin/contracts/access/AccessControl.sol\";\r\nimport \"@openzeppelin/contracts/math/SafeMath.sol\";\r\nimport \"../interfaces/IToken.sol\";\r\n\r\ncontract Staking is AccessControl {\r\n    using SafeMath for uint256;\r\n\r\n    // Time based variables\r\n    uint256 unlockTime;\r\n\r\n    uint256 public totalStakers = 0;\r\n    uint256 public totalStakes = 0;\r\n\r\n      // Premine values\r\n  uint256 premineTotal = 676000000000e18; // 675b coins total on launch\r\n  uint256 presalePremine = 250000000000e18; // 250b coins\r\n  uint256 devPayment = 1000000000e18; // 1b coins\r\n  uint256 swapPremine = 250000000000e18; // 250b coins\r\n  uint256 uinswapPremine = 75000000000e18; // 75b coins\r\n  uint256 devFundPremine = 75000000000e18; // 75b coins\r\n  uint256 teamPremine = 25000000000e18; // 25b coins\r\n  uint256 public bigPayoutPool = 1500000; //1m coins\r\n    \r\n  address internal constant _advisorAddress_1 = 0x583031D1113aD414F02576BD6afaBfb302140225;\r\n  address internal constant _advisorAddress_2 = 0xdD870fA1b7C4700F2BD7f44238821C26f7392148;\r\n  address internal constant _advisorAddress_3 = 0xdD870fA1b7C4700F2BD7f44238821C26f7392148;\r\n  address internal constant _advisorAddress_4 = 0xdD870fA1b7C4700F2BD7f44238821C26f7392148;\r\n  address internal constant _advisorAddress_5 = 0xdD870fA1b7C4700F2BD7f44238821C26f7392148;\r\n  uint256 internal constant _advisorPercent = 100; // 1% in basis points\r\n    \r\n  address internal constant _coreTeamAddress_1 = 0x4B0897b0513fdC7C541B6d9D7E929C4e5364D2dB;\r\n  address internal constant _coreTeamAddress_2 = 0xdD870fA1b7C4700F2BD7f44238821C26f7392148;\r\n  address internal constant _coreTeamAddress_3 = 0xdD870fA1b7C4700F2BD7f44238821C26f7392148;\r\n  address internal constant _coreTeamAddress_4 = 0xdD870fA1b7C4700F2BD7f44238821C26f7392148;\r\n  address internal constant _coreTeamAddress_5 = 0xdD870fA1b7C4700F2BD7f44238821C26f7392148;\r\n  uint256 internal constant _coreTeamPercent = 500; // 5% in basis points\r\n    \r\n  address internal constant _marketingAddress = 0x14723A09ACff6D2A60DcdF7aA4AFf308FDDC160C;\r\n  uint256 internal constant _marketingPercent = 100; // 1% in basis points\r\n    \r\n  uint256 internal constant _burnTransferPercent = 2; // .02% in basis points\r\n  uint256 internal constant _burnEarlyEndStakePercent = 3000; // 30% in basis points\r\n  uint256 internal constant _bpdEarlyEndStakePercent = 3000; // 30% in basis points\r\n\r\n    uint256 internal constant days_year = 365;\r\n    uint256 internal constant secondsAday = 86400;\r\n    uint256 internal constant blocksAday = 6500; // Rough rounded up blocks perday based on 14sec eth block time\r\n    uint256 internal _unStakeGracePeriod = 14; // Amount in days\r\n    uint256 internal _maxUnstakePeriod = 365; // Amount in days\r\n\r\n    uint256 private _sessionsIds;\r\n\r\n    event stake(address indexed account, uint256 indexed sessionId, uint256 amount, uint256 start, uint256 end);\r\n\r\n    mapping(address => uint256) internal stakes;\r\n    mapping(address => uint256) internal rewards;\r\n    \r\n    mapping(address => stakeData) stakeParams;\r\n    mapping(uint256 => stakeData) sessionStakeData;\r\n\r\n    address[] internal stakeholders;\r\n\r\n    address public mainToken;    \r\n    bool public init_;\r\n\r\n    struct stakeData { \r\n        address account;\r\n        uint256 amount; \r\n        uint256 start; \r\n        uint256 end;\r\n        uint256 interest;\r\n        uint256 stakeDays;\r\n        uint256 session;\r\n    }\r\n    \r\n    struct Session { \r\n        uint256 amount; \r\n        uint256 start; \r\n        uint256 end;        \r\n    }\r\n\r\n    constructor() public {\r\n        init_ = false;\r\n    }\r\n\r\n    function init(\r\n        address _mainToken\r\n    ) external {\r\n        mainToken = _mainToken;\r\n        init_ = true;\r\n    }\r\n\r\n    function createStake(uint256 amount, uint256 stakingDays) public returns (uint256){\r\n        require(IERC20(mainToken).balanceOf(msg.sender) >= amount, \"You can only stake what you own.\");\r\n        require(stakingDays > 0, \"stakingDays < 1\");\r\n        totalStakes = totalStakes.add(amount);\r\n        IToken(mainToken).burn(msg.sender, amount);\r\n        \r\n        // Set the time it takes to unstake\r\n        unlockTime = now.add(stakingDays.mul(secondsAday));\r\n        \r\n        uint256 _interestBaseRate;\r\n        uint256 _interestDayRate;\r\n        uint256 _interestRate;\r\n        uint256 sessionId = _sessionsIds;\r\n        uint256 stakingInterest;\r\n        uint256 stakingDaysCalc;\r\n        \r\n        if(stakingDays >= 15 && stakingDays <= 30){\r\n            _interestBaseRate = 500; // 5%\r\n            _interestDayRate = 33; // .33% perday\r\n            stakingDaysCalc = stakingDays.sub(15);\r\n            _interestRate = stakingDaysCalc.mul(_interestDayRate).add(_interestBaseRate);\r\n        }else if(stakingDays > 30 && stakingDays <= 90){\r\n            _interestBaseRate = 1200; // 12%\r\n            _interestDayRate = 40; // .40% perday\r\n            stakingDaysCalc = stakingDays.sub(30);\r\n            _interestRate = stakingDaysCalc.mul(_interestDayRate).add(_interestBaseRate);\r\n        }else if(stakingDays > 90 && stakingDays <= 180){\r\n            _interestBaseRate = 4200; // 42%\r\n            _interestDayRate = 47; // .47% perday\r\n            stakingDaysCalc = stakingDays.sub(90);\r\n            _interestRate = stakingDaysCalc.mul(_interestDayRate).add(_interestBaseRate);\r\n        }else if(stakingDays > 180 && stakingDays <= 360){\r\n            _interestBaseRate = 9600; // 96%\r\n            _interestDayRate = 53; // .53 perday\r\n            stakingDaysCalc = stakingDays.sub(180);\r\n            _interestRate = stakingDaysCalc.mul(_interestDayRate).add(_interestBaseRate);\r\n        }else if(stakingDays > 360){\r\n            _interestBaseRate = 22000; // 220%\r\n            _interestDayRate = 61; // .61%\r\n            stakingDaysCalc = stakingDays.sub(360);\r\n            _interestRate = stakingDaysCalc.mul(_interestDayRate).add(_interestBaseRate);\r\n        }\r\n        \r\n        \r\n        _sessionsIds = _sessionsIds.add(1);\r\n        stakingInterest = amount.mul(_interestRate).div(10000);\r\n\r\n        stakeData memory stakeData_ = stakeData({\r\n            account: msg.sender,\r\n            amount: amount,\r\n            session: sessionId,\r\n            start: now,\r\n            end: unlockTime,\r\n            stakeDays: stakingDays,\r\n            interest: stakingInterest\r\n        });\r\n        \r\n        stakeParams[msg.sender] = stakeData_;\r\n        sessionStakeData[sessionId] = stakeData_;\r\n        \r\n        //Increase staking supply\r\n        //_stakingSupply.add(amount);\r\n        \r\n        //If user is not already in the stakes array add them for bpd payouts\r\n        if(stakes[msg.sender] == 0) addStakeholder(msg.sender);\r\n        //stakes[msg.sender] = stakes[msg.sender].add(amount);\r\n        \r\n        \r\n        \r\n        emit stake(msg.sender, sessionId, amount, now, unlockTime);\r\n        \r\n        return (sessionId);\r\n    }\r\n\r\n    function returnSessionInfo(uint256 sessionID) public view returns (address account, uint256 amount, uint256 session, uint256 start, uint256 end, uint256 stakeDays, uint256 interest){\r\n        return (sessionStakeData[sessionID].account,\r\n                sessionStakeData[sessionID].amount,\r\n                sessionStakeData[sessionID].session,\r\n                sessionStakeData[sessionID].start,\r\n                sessionStakeData[sessionID].end,\r\n                sessionStakeData[sessionID].stakeDays,\r\n                sessionStakeData[sessionID].interest\r\n            );\r\n    }\r\n\r\n    function claimableAmount(uint256 sessionID) internal returns (uint256){\r\n        require(now.sub(sessionStakeData[sessionID].start) > secondsAday, \"You must have been staked for 1 full day first.\");\r\n        \r\n        //uint256 actualDaysStaked = now.sub(sessionStakeData[sessionID].start);\r\n        uint256 actualDaysStaked = sessionStakeData[sessionID].end.sub(sessionStakeData[sessionID].start).div(60).div(60).div(24);\r\n        uint256 commitedDaysToStake = now.sub(sessionStakeData[sessionID].start).div(60).div(60).div(24);\r\n        //uint256 timeForFullReward = sessionStakeData[sessionID].end.sub(sessionStakeData[sessionID].start);\r\n        \r\n        uint256 amountAndInterest = sessionStakeData[sessionID].amount.add(sessionStakeData[sessionID].interest);\r\n        \r\n        \r\n        //uint256 commitedDaysToStake = saidStakedDays;\r\n        //uint256 actualDaysStaked = actualStakedDays;\r\n        //uint256 timeForFullReward = actualStakedDays.add(_unStakeGracePeriod);\r\n        \r\n        //uint256 amountAndInterest = amount;\r\n        \r\n        uint256 payOutAmount;\r\n        uint256 penalty;\r\n        \r\n        // ------------------------------------------------------------------------\r\n        //                             Claimed to early\r\n        // ------------------------------------------------------------------------\r\n        \r\n        if (commitedDaysToStake > actualDaysStaked) {\r\n            payOutAmount = amountAndInterest.mul(actualDaysStaked).div(commitedDaysToStake);\r\n             penalty = amountAndInterest.sub(payOutAmount);\r\n            \r\n        // ------------------------------------------------------------------------\r\n        //              Claimed on time and under endStake grace period\r\n        // ------------------------------------------------------------------------\r\n        \r\n        } else if (actualDaysStaked >= commitedDaysToStake && actualDaysStaked <= commitedDaysToStake.add(_unStakeGracePeriod)) {\r\n            payOutAmount = amountAndInterest;\r\n            penalty = 0;\r\n            \r\n        // ------------------------------------------------------------------------\r\n        //             Claimed after endStake grace period with penalties\r\n        // ------------------------------------------------------------------------\r\n        \r\n        } else if (actualDaysStaked > commitedDaysToStake.add(_unStakeGracePeriod) && actualDaysStaked < commitedDaysToStake.add(_maxUnstakePeriod)) {\r\n            penalty = amountAndInterest.mul(actualDaysStaked).div(_maxUnstakePeriod);\r\n            payOutAmount = amountAndInterest.sub(penalty);\r\n            \r\n        // ------------------------------------------------------------------------\r\n        //             Claimed to late all funds are moved to BPD pool\r\n        // ------------------------------------------------------------------------\r\n        \r\n        } else if (commitedDaysToStake.add(_maxUnstakePeriod) <= actualDaysStaked) {\r\n            penalty = amountAndInterest;\r\n            payOutAmount = 0;\r\n\r\n        }\r\n        \r\n            uint256 coreTeamPayout = penalty.mul(_coreTeamPercent).div(10000);\r\n            uint256 advisorPayout = penalty.mul(_advisorPercent).div(10000);\r\n            uint256 marketingPayout = penalty.mul(_marketingPercent).div(10000);\r\n            //uint256 burnAmount = penalty.mul(_burnEarlyEndStakePercent).div(10000);\r\n            uint256 bpdPoolAmount = penalty.mul(_bpdEarlyEndStakePercent).div(10000);\r\n            \r\n            if (coreTeamPayout > 1 && penalty > 0){\r\n                IERC20(mainToken).transfer(_coreTeamAddress_1, coreTeamPayout); IERC20(mainToken).transfer(_coreTeamAddress_2, coreTeamPayout);\r\n                IERC20(mainToken).transfer(_coreTeamAddress_3, coreTeamPayout); IERC20(mainToken).transfer(_coreTeamAddress_4, coreTeamPayout);\r\n                IERC20(mainToken).transfer(_coreTeamAddress_5, coreTeamPayout);\r\n            } \r\n            if (advisorPayout > 1 && penalty > 0){\r\n                IERC20(mainToken).transfer(_advisorAddress_1, advisorPayout); IERC20(mainToken).transfer(_advisorAddress_2, advisorPayout);\r\n                IERC20(mainToken).transfer(_advisorAddress_3, advisorPayout); IERC20(mainToken).transfer(_advisorAddress_4, advisorPayout);\r\n                IERC20(mainToken).transfer(_advisorAddress_5, advisorPayout);\r\n            }\r\n            if (marketingPayout > 1 && penalty > 0){\r\n                IERC20(mainToken).transfer(_marketingAddress, marketingPayout);\r\n            }\r\n            //burn(msg.sender, burnAmount);\r\n            bigPayoutPool.add(bpdPoolAmount);\r\n            \r\n            return payOutAmount;\r\n    }\r\n\r\n    function isStakeholder(address _address) public view returns(bool, uint256) {\r\n        for (uint256 s = 0; s < stakeholders.length; s += 1){\r\n            if (_address == stakeholders[s]) return (true, s);\r\n        }\r\n        return (false, 0);\r\n    }\r\n    \r\n    function addStakeholder(address _stakeholder) internal {\r\n        (bool _isStakeholder, ) = isStakeholder(_stakeholder);\r\n        if(!_isStakeholder) {\r\n            stakeholders.push(_stakeholder); \r\n            totalStakers = totalStakers.add(1);\r\n        }\r\n    }\r\n\r\n    function removeStakeholder(address _stakeholder) internal {\r\n        (bool _isStakeholder, uint256 s) = isStakeholder(_stakeholder);\r\n        if(_isStakeholder){\r\n            stakeholders[s] = stakeholders[stakeholders.length - 1];\r\n            stakeholders.pop();\r\n            totalStakers = totalStakers.sub(1);\r\n        } \r\n    }\r\n}",
  "sourcePath": "D:/crypto/firenetwork/github/Fire-Contracts-DEV-/contracts/Staking.sol",
  "compiler": {
    "name": "solc",
    "version": "0.6.2+commit.bacdbe57.Emscripten.clang"
  },
  "schemaVersion": "3.3.2",
  "updatedAt": "2020-12-18T04:04:15.770Z",
  "devdoc": {
    "methods": {
      "getRoleAdmin(bytes32)": {
        "details": "Returns the admin role that controls `role`. See {grantRole} and {revokeRole}.     * To change a role's admin, use {_setRoleAdmin}."
      },
      "getRoleMember(bytes32,uint256)": {
        "details": "Returns one of the accounts that have `role`. `index` must be a value between 0 and {getRoleMemberCount}, non-inclusive.     * Role bearers are not sorted in any particular way, and their ordering may change at any point.     * WARNING: When using {getRoleMember} and {getRoleMemberCount}, make sure you perform all queries on the same block. See the following https://forum.openzeppelin.com/t/iterating-over-elements-on-enumerableset-in-openzeppelin-contracts/2296[forum post] for more information."
      },
      "getRoleMemberCount(bytes32)": {
        "details": "Returns the number of accounts that have `role`. Can be used together with {getRoleMember} to enumerate all bearers of a role."
      },
      "grantRole(bytes32,address)": {
        "details": "Grants `role` to `account`.     * If `account` had not been already granted `role`, emits a {RoleGranted} event.     * Requirements:     * - the caller must have ``role``'s admin role."
      },
      "hasRole(bytes32,address)": {
        "details": "Returns `true` if `account` has been granted `role`."
      },
      "renounceRole(bytes32,address)": {
        "details": "Revokes `role` from the calling account.     * Roles are often managed via {grantRole} and {revokeRole}: this function's purpose is to provide a mechanism for accounts to lose their privileges if they are compromised (such as when a trusted device is misplaced).     * If the calling account had been granted `role`, emits a {RoleRevoked} event.     * Requirements:     * - the caller must be `account`."
      },
      "revokeRole(bytes32,address)": {
        "details": "Revokes `role` from `account`.     * If `account` had been granted `role`, emits a {RoleRevoked} event.     * Requirements:     * - the caller must have ``role``'s admin role."
      }
    }
  },
  "userdoc": {
    "methods": {}
  }
}